:10030000112424B614BE80E059D021FE7DC08EE0B9
:1003100055D0B99A35D0823071F446D0C0E6D0E0DD
:1003200010E6180F2DD089931C13FCCF42D0A0E605
:10033000B0E04AD00EC0833041F436D0C82F39D057
:1003400085910AD0C150E1F704C0823008F4FFCF94
:1003500030D08BE001D0DECF2AE08095089410F4F5
:10036000C19802C0C19A000004D086952A95B9F7B9
:100370000895000000D09EE29A95F1F700C008951C
:10038000C29ABA9A29E0B099FECFF5DFF2DF8894DD
:10039000B09908942A9519F087950000F7CF08F0D6
:1003A000FFCFA895C2980895EBDFE82FE9DFF82F7B
:1003B000E7CFE6DF8032F9F780E2CECF98E191BD5A
:1003C00081BD0895FB01DC0160E26A0F9F01F330FB
:1003D00080F483E009D081E00D901D9005D0329625
:1003E000A613FACFF90185E087BFE89507B600FCB0
:0603F000FDCF1124089569
:0603FA000804E1CF243FDE
:0400000300000300F6
:00000001FF
