:10030000112424B614BE80E052D021FE7DC08EE0C0
:100310004ED0B99A32D0823071F43FD0C0E6D0E0EE
:1003200010E6180F2AD089931C13FCCF3BD0A0E60F
:10033000B0E043D00EC0833041F42FD0C82F32D06C
:1003400085910AD0C150E1F704C0823008F4FFCF94
:1003500029D08BE001D0DECF2AE08095089410F4FC
:10036000C19802C0C19A000004D086952A95B9F7B9
:100370000895000000D090E0089529E0B099FECFE4
:10038000FADFF7DF8894B09908942A9511F08795E1
:10039000F8CF08F0FFCFA8950895EFDFE82FEDDF45
:1003A000F82FEBCFEADF8032F9F780E2D5CF98E182
:1003B00091BD81BD0895FB01DC0160E26A0F9F01E0
:1003C000F330B8F483E010D0309629F48FE78D93A2
:1003D0008FEC8C93119781E00D901D9005D0329693
:1003E000A613FACFF90185E087BFE89507B600FCB0
:0603F000FDCF1124089569
:0603FA000804DACF263FE3
:0400000300000300F6
:00000001FF
