:10030000112424B614BE80E051D021FE7DC08EE0C1
:100310004DD0B99A31D0823069F43ED0A0E6B0E039
:100320002BD08D93A038E1F7A0E63BD045D08BE0F1
:100330000FD0F0CF833041F42FD0C82F32D0859129
:1003400007D0C150E1F7F3CF8230F0F32AD0EFCFDE
:100350002AE08095089410F4C19802C0C19A000068
:1003600004D086952A95B9F70895000000C000D002
:100370009DE19A95F1F7089529E0B099FECFF8DF55
:10038000F4DF8894B09908942A9519F087950000B5
:10039000F7CFF8F7A8950895EFDFE82FEDDFF82FF6
:1003A000EBCFEADF8032F9F780E2D2CF98E191BD5E
:1003B00081BD0895FB01DC01E07E70E27A0FF3302D
:1003C000B8F4309629F48FE78D938FEC8C931197C6
:1003D00083E009D081E00D901D9005D03296A713DF
:1003E000FACFB09785E087BFE89517B610FCFDCF30
:0403F0001124089537
:0603FA000804DBCF064001
:0400000300000300F6
:00000001FF
