:10030000112424B614BE80E052D021FE7DC08EE0C0
:100310004ED0B89A31D0823071F43FD0C0E6D0E0F0
:1003200010E6180F29D089931C13FCCF3BD0A0E610
:10033000B0E043D00EC0833041F42FD0C82F32D06C
:1003400085910AD0C150E1F704C0823008F4FFCF94
:1003500029D08BE001D0DECF2AE08095089410F4FC
:10036000C09802C0C09A000004D086952A95B9F7BB
:100370000895000000C0089529E0B199FECFFBDF89
:10038000F8DF8894B19908942A9519F087950000B0
:10039000F7CF08F0FFCFA8950895EEDFE82FECDF48
:1003A000F82FEACFE9DF8032F9F780E2D5CF98E184
:1003B00091BD81BD0895FB01DC0160E26A0F9F01E0
:1003C000F330B8F483E010D0309629F48FE78D93A2
:1003D0008FEC8C93119781E00D901D9005D0329693
:1003E000A613FACFF90185E087BFE89507B600FCB0
:0603F000FDCF1124089569
:0603FA000804DACF263FE3
:0400000300000300F6
:00000001FF
