:10030000112424B614BE80E052D021FE7DC08EE0C0
:100310004ED0B89A34D0823071F444D0C0E6D0E0E8
:1003200010E6180F2CD089931C13FCCF44D0A0E604
:10033000B0E04BD00EC0833041F434D0C82F3BD056
:1003400085910AD0C150E1F704C0823008F436C06C
:1003500032D08BE001D0DECF2AE08095089410F4F3
:10036000C09802C0C09A000004D086952A95B9F7BB
:100370000895000000D097E29A95F1F70895002CB7
:10038000CC2C29E0B199FECFF6DFF3DF8894B19948
:1003900008942A9511F08795F8CF08F00FC0A8951A
:1003A000112C0895ECDFE82FEADFF82FE8CF98E171
:1003B00091BD81BD0895E3DF803219F088E0F7DF59
:1003C000FFCF80E2C9CFFB01DC0160E26A0F9F0131
:1003D000F33080F483E009D081E00D901D9005D0CA
:1003E0003296A613FACFF90185E087BFE89507B6E4
:0803F00000FCFDCF112408956B
:0603FA000804DFCF243FE0
:0400000300000300F6
:00000001FF
