:10030000112424B614BE80E04AD021FE7DC08EE0C8
:1003100046D0B89A2ED0823069F43CD0A0E6B0E046
:1003200028D08D93A038E1F7A0E63DD046D08BE0F1
:100330000FD0F0CF833041F42DD0C82F34D0859129
:1003400007D0C150E1F7F3CF8230F0F32CD0EFCFDC
:100350002AE08095089410F4C09802C0C09A00006A
:1003600004D086952A95B9F70895000000C000C012
:10037000089529E0B199FECFFBDFF7DF8894B199AA
:1003800008942A9519F087950000F7CF08F00EC061
:10039000A8950895EEDFE82FECDFF82FEACF98E17B
:1003A00091BD81BD0895E5DF803219F088E0F7DF67
:1003B000FFCF80E2CDCFFB01DC01E07E70E27A0F5F
:1003C000F330B8F4309629F48FE78D938FEC8C934B
:1003D000119783E009D081E00D901D9005D03296F1
:1003E000A713FACFB09785E087BFE89517B610FC42
:0603F000FDCF1124089569
:0603FA000804DCCF064000
:0400000300000300F6
:00000001FF
