:10030000112424B614BE80E052D021FE7DC08EE0C0
:100310004ED0B99A2FD0823069F43FD0A0E6B0E039
:1003200029D08D93A038E1F7A0E63CD046D08BE0F1
:100330000FD0F0CF833041F430D0C82F33D0859127
:1003400007D0C150E1F7F3CF8230F0F32BD0EFCFDD
:100350002AE08095089410F4C19802C0C19A000068
:1003600004D086952A95B9F7089500D096E09A951D
:10037000F1F70895C29ABA9A29E0B099FECFF6DF54
:10038000F4DF8894B09908942A9519F087950000B5
:10039000F7CFF8F7A895C2980895ECDFE82FEADFC9
:1003A000F82FE8CFE7DF8032F9F780E2D1CF98E18C
:1003B00091BD81BD0895FB01DC01E07E70E27A0F02
:1003C000F330B8F4309629F48FE78D938FEC8C934B
:1003D000119783E009D081E00D901D9005D03296F1
:1003E000A713FACFB09785E087BFE89517B610FC42
:0603F000FDCF1124089569
:0603FA000804DCCF064000
:0400000300000300F6
:00000001FF
