:10030000112424B614BE80E053D021FE7DC08EE0BF
:100310004FD0B89A34D0823071F445D0C0E6D0E0E6
:1003200010E6180F2CD089931C13FCCF45D0A0E603
:10033000B0E04CD00EC0833041F435D0C82F3CD053
:1003400085910AD0C150E1F704C0823008F437C06B
:1003500033D08BE001D0DECF2AE08095089410F4F2
:10036000C09802C0C09A000004D086952A95B9F7BB
:10037000089500C000D09EE09A95F1F70895C29AC2
:10038000BA9A29E0B199FECFF6DFF3DF8894B199EC
:1003900008942A9519F087950000F7CF08F00FC050
:1003A000A895C2980895EBDFE82FE9DFF82FE7CF93
:1003B00098E191BD81BD0895E2DF803219F088E0B7
:1003C000F7DFFFCF80E2C8CFFB01DC0160E26A0FFC
:1003D0009F01F33080F483E009D081E00D901D90FF
:1003E00005D03296A613FACFF90185E087BFE895CC
:0A03F00007B600FCFDCF11240895AC
:0603FA000804E0CF243FDF
:0400000300000300F6
:00000001FF
