:10030000112424B614BE80E054D021FE7DC08EE0BE
:1003100050D0B99A34D0823071F441D0C0E6D0E0E8
:1003200010E6180F2CD089931C13FCCF3DD0A0E60B
:10033000B0E045D00EC0833041F431D0C82F34D066
:1003400085910AD0C150E1F704C0823008F4FFCF94
:100350002BD08BE001D0DECF2AE08095089410F4FA
:10036000C19802C0C19A000004D086952A95B9F7B9
:10037000089500C000D093E09A95F1F7089529E020
:10038000B099FECFF8DFF5DF8894B09908942A95EC
:1003900019F087950000F7CF08F4A8950895EFDFCE
:1003A000E82FEDDFF82FEBCFEADF8032F9F780E2BC
:1003B000D3CF98E191BD81BD0895FB01DC0160E2DE
:1003C0006A0F9F01F330B8F483E010D0309629F41F
:1003D0008FE78D938FEC8C93119781E00D901D909A
:1003E00005D03296A613FACFF90185E087BFE895CC
:0A03F00007B600FCFDCF11240895AC
:0603FA000804DDCF263FE0
:0400000300000300F6
:00000001FF
