:10030000112424B614BE80E053D021FE7DC08EE0BF
:100310004FD0B89A32D0823071F440D0C0E6D0E0ED
:1003200010E6180F2AD089931C13FCCF3CD0A0E60E
:10033000B0E044D00EC0833041F430D0C82F33D069
:1003400085910AD0C150E1F704C0823008F4FFCF94
:100350002AD08BE001D0DECF2AE08095089410F4FB
:10036000C09802C0C09A000004D086952A95B9F7BB
:100370000895000000D000C0089529E0B199FECF93
:10038000FADFF7DF8894B19908942A9519F08795D8
:100390000000F7CF08F0FFCFA8950895EEDFE82F13
:1003A000ECDFF82FEACFE9DF8032F9F780E2D4CF33
:1003B00098E191BD81BD0895FB01DC0160E26A0F07
:1003C0009F01F330B8F483E010D0309629F48FE722
:1003D0008D938FEC8C93119781E00D901D9005D03B
:1003E0003296A613FACFF90185E087BFE89507B6E4
:0803F00000FCFDCF112408956B
:0603FA000804DBCF263FE2
:0400000300000300F6
:00000001FF
