:10030000112424B614BE80E049D021FE7DC08EE0C9
:1003100045D0B99A2DD0823069F43BD0A0E6B0E048
:1003200027D08D93A038E1F7A0E63CD045D08BE0F4
:100330000FD0F0CF833041F42CD0C82F33D085912B
:1003400007D0C150E1F7F3CF8230F0F32BD0EFCFDD
:100350002AE08095089410F4C19802C0C19A000068
:1003600004D086952A95B9F70895000000C0089535
:1003700029E0B099FECFFBDFF8DF8894B0990894AC
:100380002A9519F087950000F7CF08F00EC0A895C0
:100390000895EEDFE82FECDFF82FEACF98E191BD6A
:1003A00081BD0895E5DF803219F088E0F7DFFFCFE7
:1003B00080E2CECFFB01DC01E07E70E27A0FF33009
:1003C000B8F4309629F48FE78D938FEC8C931197C6
:1003D00083E009D081E00D901D9005D03296A713DF
:1003E000FACFB09785E087BFE89517B610FCFDCF30
:0403F0001124089537
:0603FA000804DBCF064001
:0400000300000300F6
:00000001FF
