:10030000112424B614BE80E052D021FE7DC08EE0C0
:100310004ED0B89A34D0823071F43FD0C0E6D0E0ED
:1003200010E6180F2CD089931C13FCCF3BD0A0E60D
:10033000B0E044D00EC0833041F42FD0C82F32D06B
:1003400085910AD0C150E1F704C0823008F4FFCF94
:1003500029D08BE001D0DECF2AE08095089410F4FC
:10036000C09802C0C09A000004D086952A95B9F7BB
:100370000895000000D09CE09A95F1F7089529E0D7
:10038000B199FECFF8DFF5DF8894B19908942A95EA
:1003900011F08795F8CFA8950895F1DFE82FEFDFEA
:1003A000F82FEDCFECDF8032F9F780E2D5CF98E17E
:1003B000A89591BD81BD0895FB01DC0160E26A0F43
:1003C0009F01F330B8F483E010D0309629F48FE722
:1003D0008D938FEC8C93119781E00D901D9005D03B
:1003E0003296A613FACFF90185E087BFE89507B6E4
:0803F00000FCFDCF112408956B
:0603FA000804DDCF263FE0
:0400000300000300F6
:00000001FF
