:10030000112424B614BE80E051D021FE7DC08EE0C1
:100310004DD0B99A33D0823071F43ED0C0E6D0E0EF
:1003200010E6180F2BD089931C13FCCF3AD0A0E60F
:10033000B0E043D00EC0833041F42ED0C82F31D06E
:1003400085910AD0C150E1F704C0823008F4FFCF94
:1003500028D08BE001D0DECF2AE08095089410F4FD
:10036000C19802C0C19A000004D086952A95B9F7B9
:10037000089500D09DEC9A95F1F7089529E0B09981
:10038000FECFF8DFF6DF8894B09908942A9511F033
:100390008795F8CFA8950895F1DFE82FEFDFF82FC4
:1003A000EDCFECDF8032F9F780E2D6CF98E1A89567
:1003B00091BD81BD0895FB01DC0160E26A0F9F01E0
:1003C000F330B8F483E010D0309629F48FE78D93A2
:1003D0008FEC8C93119781E00D901D9005D0329693
:1003E000A613FACFF90185E087BFE89507B600FCB0
:0603F000FDCF1124089569
:0603FA000804DCCF263FE1
:0400000300000300F6
:00000001FF
