:10030000112424B614BE80E053D021FE7DC08EE0BF
:100310004FD0B89A30D0823069F440D0A0E6B0E037
:100320002AD08D93A038E1F7A0E63DD047D08BE0EE
:100330000FD0F0CF833041F431D0C82F34D0859125
:1003400007D0C150E1F7F3CF8230F0F32CD0EFCFDC
:100350002AE08095089410F4C09802C0C09A00006A
:1003600004D086952A95B9F70895000000D09CE046
:100370009A95F1F70895C29ABA9A29E0B199FECFF9
:10038000F6DFF3DF8894B19908942A9519F08795E0
:100390000000F7CFF8F7A895C2980895ECDFE82F92
:1003A000EADFF82FE8CFE7DF8032F9F780E2D0CF3D
:1003B00098E191BD81BD0895FB01DC01E07E70E212
:1003C0007A0FF330B8F4309629F48FE78D938FECE1
:1003D0008C93119783E009D081E00D901D9005D09A
:1003E0003296A713FACFB09785E087BFE89517B686
:0803F00010FCFDCF112408955B
:0603FA000804DDCF0640FF
:0400000300000300F6
:00000001FF
