:10030000112424B614BE80E054D021FE7DC08EE0BE
:1003100050D0B89A33D0823071F441D0C0E6D0E0EA
:1003200010E6180F2BD089931C13FCCF3DD0A0E60C
:10033000B0E045D00EC0833041F431D0C82F34D066
:1003400085910AD0C150E1F704C0823008F4FFCF94
:100350002BD08BE001D0DECF2AE08095089410F4FA
:10036000C09802C0C09A000004D086952A95B9F7BB
:10037000089500D09DE69A95F1F70895C29ABA9A29
:1003800029E0B199FECFF6DFF4DF8894B1990894A3
:100390002A9511F08795F8CFA895C2980895EEDFB9
:1003A000E82FECDFF82FEACFE9DF8032F9F780E2BF
:1003B000D3CF98E191BD81BD0895FB01DC0160E2DE
:1003C0006A0F9F01F330B8F483E010D0309629F41F
:1003D0008FE78D938FEC8C93119781E00D901D909A
:1003E00005D03296A613FACFF90185E087BFE895CC
:0A03F00007B600FCFDCF11240895AC
:0603FA000804DECF263FDF
:0400000300000300F6
:00000001FF
