:10030000112424B614BE80E053D021FE7DC08EE0BF
:100310004FD0B89A35D0823071F440D0C0E6D0E0EA
:1003200010E6180F2DD089931C13FCCF3CD0A0E60B
:10033000B0E045D00EC0833041F430D0C82F33D068
:1003400085910AD0C150E1F704C0823008F4FFCF94
:100350002AD08BE001D0DECF2AE08095089410F4FB
:10036000C09802C0C09A000004D086952A95B9F7BB
:100370000895000000D096E29A95F1F700C0089524
:1003800029E0B199FECFF7DFF4DF8894B1990894A2
:100390002A9511F08795F8CFA8950895F1DFE82FF9
:1003A000EFDFF82FEDCFECDF8032F9F780E2D4CF2A
:1003B00098E1A89591BD81BD0895FB01DC0160E243
:1003C0006A0F9F01F330B8F483E010D0309629F41F
:1003D0008FE78D938FEC8C93119781E00D901D909A
:1003E00005D03296A613FACFF90185E087BFE895CC
:0A03F00007B600FCFDCF11240895AC
:0603FA000804DECF263FDF
:0400000300000300F6
:00000001FF
