:10030000112424B614BE80E04CD021FE7DC08EE0C6
:1003100048D0B99A30D0823069F43ED0A0E6B0E03F
:100320002AD08D93A038E1F7A0E63FD048D08BE0EB
:100330000FD0F0CF833041F42FD0C82F36D0859125
:1003400007D0C150E1F7F3CF8230F0F32ED0EFCFDA
:100350002AE08095089410F4C19802C0C19A000068
:1003600004D086952A95B9F70895000000D094E44A
:100370009A95F1F7089529E0B099FECFF8DFF5DFFF
:100380008894B09908942A9519F087950000F7CFC2
:1003900008F00EC0A8950895EEDFE82FECDFF82FE7
:1003A000EACF98E191BD81BD0895E5DF803219F073
:1003B00088E0F7DFFFCF80E2CBCFFB01DC01E07EFE
:1003C00070E27A0FF330B8F4309629F48FE78D930A
:1003D0008FEC8C93119783E009D081E00D901D90F4
:1003E00005D03296A713FACFB09785E087BFE8957E
:0A03F00017B610FCFDCF112408958C
:0603FA000804DECF0640FE
:0400000300000300F6
:00000001FF
