:10030000112424B614BE80E04BD021FE7DC08EE0C7
:1003100047D0B89A2FD0823069F43DD0A0E6B0E043
:1003200029D08D93A038E1F7A0E63ED047D08BE0EE
:100330000FD0F0CF833041F42ED0C82F35D0859127
:1003400007D0C150E1F7F3CF8230F0F32DD0EFCFDB
:100350002AE08095089410F4C09802C0C09A00006A
:1003600004D086952A95B9F7089500D094E79A9518
:10037000F1F7089529E0B199FECFF8DFF6DF889410
:10038000B19908942A9519F087950000F7CF08F0E5
:100390000EC0A8950895EEDFE82FECDFF82FEACF26
:1003A00098E191BD81BD0895E5DF803219F088E0C4
:1003B000F7DFFFCF80E2CCCFFB01DC01E07E70E213
:1003C0007A0FF330B8F4309629F48FE78D938FECE1
:1003D0008C93119783E009D081E00D901D9005D09A
:1003E0003296A713FACFB09785E087BFE89517B686
:0803F00010FCFDCF112408955B
:0603FA000804DDCF0640FF
:0400000300000300F6
:00000001FF
